:100000000C942A000C943F000C943F000C943F0089
:100010000C943F000C943F000C943F000C943F0064
:100020000C943F000C943F000C943F000C943F0054
:100030000C943F000C943F000C943F000C943F0044
:100040000C943F000C943F000C943F000C943F0034
:100050000C943F0011241FBECFE5D8E0DEBFCDBF1A
:1000600010E0A0E6B0E0E6E1F2E002C005900D92FB
:10007000A837B107D9F70E9441000C9409010C94EC
:1000800000000E94BC0080E690E00E94E40060E076
:1000900081E00E94F1008BE690E00E94E400FFCF37
:1000A00098B3926098BB9BB3282F207F9F70922BB0
:1000B0009BBB98B3986098BBEFE3FFE13197F1F7F2
:1000C00000C0000098B3977F98BBEFE1FEE4319742
:1000D000F1F700C00000F0E18F9FC00111249BB335
:1000E0009F70892B8BBB88B3886088BB8FE39FE1AF
:1000F0000197F1F700C0000088B3877F88BBEFE16C
:10010000FEE43197F1F700C00000089598B39D7F99
:1001100098BB9BB3282F207F9F70922B9BBB98B3DB
:10012000986098BBEFE3FFE13197F1F700C0000062
:1001300098B3977F98BBEFE1FEE43197F1F700C0E9
:100140000000F0E18F9FC00111249BB39F70892BA9
:100150008BBB88B3886088BB8FE39FE10197F1F781
:1001600000C0000088B3877F88BBEFE1FEE43197D1
:10017000F1F700C0000008958AB3806F8ABB87B38F
:100180008E6087BB88B38B7F88BB2FEF84E39CE0B6
:10019000215080409040E1F700C0000083E30E94BE
:1001A000860082E30E94860088E20E94860088E240
:1001B0000E9486008CE00E94860081E00E948600FA
:1001C00082E00E9486000895CF93DF93EC0103C084
:1001D0000E945000219688818111FACFDF91CF9142
:1001E0000895CF93DF9300D0CDB7DEB790E8998321
:1001F00090EC9A83E1E0F0E0EC0FFD1FE80FF11DB9
:100200008081860F0E9486000F900F90DF91CF9122
:060210000895F894FFCFF1
:1002160057656C636F6D6520746F00536D61727402
:0802260020486F6D6521000006
:00000001FF
