:100000000C942A000C9447000C9447000C94470071
:100010000C9447000C9447000C9447000C94470044
:100020000C9447000C9447000C9447000C94470034
:100030000C9447000C9454000C9447000C94470017
:100040000C9447000C9447000C9447000C94470014
:100050000C94470011241FBECFE5D8E0DEBFCDBF12
:1000600010E0A0E6B0E0EAE7F2E002C005900D92F1
:10007000A836B107D9F720E0A8E6B0E001C01D928C
:10008000AA36B207E1F70E9449000C943B010C9498
:1000900000000E94FF000E94380187B38E7F87BB5B
:1000A00084B3846084BBFFCF1F920F920FB60F9270
:1000B00011242F933F934F935F936F937F938F936D
:1000C0009F93AF93BF93EF93FF938CB190E0909386
:1000D0006900809368008134910589F40E9434019D
:1000E00080E690E00E9427012FEF83ED90E32150FE
:1000F00080409040E1F700C000000E9434018BB1C5
:1001000080688BB9FF91EF91BF91AF919F918F91D3
:100110007F916F915F914F913F912F910F900FBE03
:100120000F901F90189598B3926098BB9BB3282F9F
:10013000207F9F70922B9BBB98B3986098BBEFE396
:10014000FFE13197F1F700C0000098B3977F98BBAB
:10015000EFE1FEE43197F1F700C00000F0E18F9F7E
:10016000C00111249BB39F70892B8BBB88B388601F
:1001700088BB8FE39FE10197F1F700C0000088B3CF
:10018000877F88BBEFE1FEE43197F1F700C0000004
:10019000089598B39D7F98BB9BB3282F207F9F70B5
:1001A000922B9BBB98B3986098BBEFE3FFE131972C
:1001B000F1F700C0000098B3977F98BBEFE1FEE431
:1001C0003197F1F700C00000F0E18F9FC0011124CA
:1001D0009BB39F70892B8BBB88B3886088BB8FE3F0
:1001E0009FE10197F1F700C0000088B3877F88BBCB
:1001F000EFE1FEE43197F1F700C0000008958AB303
:10020000806F8ABB87B38E6087BB88B38B7F88BBC8
:100210002FEF84E39CE0215080409040E1F700C044
:10022000000083E30E94C90082E30E94C90088E2C3
:100230000E94C90088E20E94C9008CE00E94C900A7
:1002400081E00E94C90082E00E94C9000895CF9316
:10025000DF93EC0103C00E949300219688818111F5
:10026000FACFDF91CF91089581E00E94C9000895EF
:0A0270008CE080B90895F894FFCFE8
:08027A0048454C4C4F210000E7
:00000001FF
