S01A0000536D6172745F486F6D655F50726F6A6563742E73726563E5
S11300000C942A000C9447000C9447000C9447006D
S11300100C9447000C9447000C9447000C94470040
S11300200C9447000C9447000C9447000C94470030
S11300300C9447000C9495000C9447000C944700D2
S11300400C9401050C9447000C9447000C94470051
S11300500C94470011241FBECFE5D8E0DEBFCDBF0E
S113006010E0A0E6B0E0E6EBFDE002C005900D92E2
S1130070AE3FB107D9F721E0AEEFB0E001C01D9269
S1130080A630B207E1F70E9479000C94D9060C94CB
S113009000002FEF86E791E0215080409040E1F787
S11300A000C0000060E070E080E090E00E943A044C
S11300B08CE690E00E948E0308952FEF86E791E08E
S11300C0215080409040E1F700C0000060E070E003
S11300D081E090E00E943A0487E790E00E948E035A
S11300E00E94B4040E949B0383E490E00E94FA02FD
S11300F008950E9428020E9466030E9415050E942A
S11301003A050E94AE020E9452040E94B1040E9469
S113011049000E945D002FEF89E698E1215080405C
S11301209040E1F700C00000F2CF1F920F920FB68B
S11301300F9211242F933F934F935F936F937F9369
S11301408F939F93AF93BF93EF93FF938CB190E002
S113015090930101809300018234910551F083341E
S1130160910559F08134910559F481E00E948F0181
S113017007C082E00E948F0103C083E00E948F01C8
S11301808BB180688BB9FF91EF91BF91AF919F9133
S11301908F917F916F915F914F913F912F910F902C
S11301A00FBE0F901F901895CF92DF92EF92FF929F
S11301B00F931F93CF93E82FF0E0E859FF4FC081CE
S11301C088E090E00E94AF056C0100E010E018C0E8
S11301D07601E00EF11E6C2F80EA0E94C002F70146
S11301E0808383ED90E30197F1F700C00000CF5FB7
S11301F00F5F1F4FE3EDF0E33197F1F700C000000C
S11302006C2F80EA0E94C0028111E2CFF601E00F58
S1130210F11F1082C601CF911F910F91FF90EF90B3
S1130220DF90CF900895CF92DF92EF92FF921F93C9
S1130230CF93DF93E82FF0E0EB59FF4F108188E074
S113024090E00E94AF056C01C0E0D0E01AC07601D6
S1130250EC0EFD1E612F80EA0E94C002F70180832C
S113026083ED90E30197F1F700C000001F5F219632
S1130270E3EDF0E33197F1F700C00000C430D1059D
S113028031F0612F80EA0E94C0028111E0CFCC0DD1
S1130290DD1D1882C601DF91CF911F91FF90EF9071
S11302A0DF90CF900895FF920F931F93CF93DF9326
S11302B085E090E00E94AF05F82ED92F84E890E005
S11302C00E948E030F2D1D2FC0E01DC00E9424022A
S11302D0E9E6F8E13197F1F700C0000090ED980FDE
S11302E09A3088F4E9E6F8E13197F1F700C00000AC
S11302F0F80181938F016C2F81E00E943A048AE215
S11303000E94FA02CF5FC43009F7F80110828F2DE2
S11303109D2FDF91CF911F910F91FF9008950F931F
S11303201F93CF93C82F84E990E00E948E038C2FF3
S11303300E94D4000E948E032FED83E994E02150A3
S113034080409040E1F700C000000E9436048C2FEA
S11303500E9413010E9453018C018C2F0E941301EF
S1130360B8010E94D006892B91F10E9436048DE9D0
S113037090E00E948E038DE990E00E9411028AE0D1
S11303800E940E022FED83E994E0215080409040BA
S1130390E1F700C000000E9436048CEA90E00E945D
S11303A08E038CEA90E00E9411028AE00E940E0201
S11303B02FE38DE093E0215080409040E1F700C0AE
S11303C000000E9436040E9453010E943C020E94D5
S11303D0360487EB90E00E948E0385EC90E00E9447
S11303E011028AE00E940E028EEC90E00E9411023B
S11303F08AE00E940E020E942C020E948C042FEDBF
S113040083E994E0215080409040E1F700C000006F
S11304100E943604CF911F910F9108950E945205B6
S11304200895CF93DF93EC0109C00E9452052196F1
S113043087E893E10197F1F700C0000088818111FA
S1130440F4CFDF91CF9108955F9BFECF8CB10895D7
S11304508AB388608ABB08958BB388608BBB2FE90D
S113046086E891E0215080409040E1F700C0000010
S11304708BB3877F8BBB08950E9436042FE78AE1F4
S113048096E0215080409040E1F700C000008FEDDD
S113049090E00E948E032FE78AE196E0215080408D
S11304A09040E1F700C000000E9436048DEE90E019
S11304B00E948E032FED83E994E021508040904008
S11304C0E1F700C000000E9436048BB388608BBB48
S11304D02FE38DE093E0215080409040E1F700C08D
S11304E000008BB3877F8BBB2FE986E891E0215016
S11304F080409040E1F700C000008BB388608BBB64
S11305002FE38DE093E0215080409040E1F700C05C
S113051000008BB3877F8BBB2FE986E891E02150E5
S113052080409040E1F700C000008BB388608BBB33
S11305302FE38DE093E0215080409040E1F700C02C
S113054000008BB3877F8BBB2FE986E891E02150B5
S113055080409040E1F700C00000089581B38061BD
S113056081BB84B3886084BB85B3886085BB0895F0
S113057082B3806182BB089582B38F7E82BB08956B
S1130580FF920F931F93CF93DF931F92CDB7DEB7E4
S1130590F62E082F0E7F182F116019820E941E0557
S11305A0089701F5802F90E00E9426054897D1F422
S11305B08F2D90E00E9426058897A1F40E941E05C5
S11305C0409781F4812F90E00E94260580349105A4
S11305D049F4CE0101960E942F058835910511F446
S11305E00E94180589810F90DF91CF911F910F917F
S11305F0FF90089598B3926098BB9BB3282F207FF7
S11306009F70922B9BBB98B3986098BBEFE3FFE17C
S11306103197F1F700C0000098B3977F98BBEFE1E2
S1130620FEE43197F1F700C00000F0E18F9FC001B4
S113063011249BB39F70892B8BBB88B3886088BBC4
S11306408FE39FE10197F1F700C0000088B3877F33
S113065088BBEFE1FEE43197F1F700C00000089594
S113066098B39D7F98BB9BB3282F207F9F70922BBC
S11306709BBB98B3986098BBEFE3FFE13197F1F728
S113068000C0000098B3977F98BBEFE1FEE4319778
S1130690F1F700C00000F0E18F9FC00111249BB36B
S11306A09F70892B8BBB88B3886088BB8FE39FE1E5
S11306B00197F1F700C0000088B3877F88BBEFE1A2
S11306C0FEE43197F1F700C0000008958AB3806F0B
S11306D08ABB87B38E6087BB88B38B7F88BB2FEFC1
S11306E084E39CE0215080409040E1F700C000008A
S11306F083E30E94300382E30E94300388E20E9475
S1130700300388E20E9430038CE00E94300381E0D1
S11307100E94300382E00E9430030895CF93DF9358
S1130720EC0103C00E94FA02219688818111FACF5C
S1130730DF91CF910895EF92FF920F931F93CF9380
S1130740DF93CDB7DEB764970FB6F894DEBF0FBE64
S1130750CDBF7C019923DCF100E010E001C08901E8
S113076098012F5F3F4FC7016AE070E00E94560571
S1130770F801EE0FFF1F41E050E04C0F5D1FE40F46
S1130780F51F91838083E62EF72EE114F10439F7E7
S11307908FE19EE40197F1F700C0000015C0F80155
S11307A0EE0FFF1F41E050E04C0F5D1FE40FF51FFB
S11307B08081805D0E94FA028FE99FE00197F1F742
S11307C000C000000150110911234CF742C09923C5
S11307D00CF03FC08DE20E94FA02882799278E19F7
S11307E09F0900E010E001C0890198012F5F3F4F8D
S11307F06AE070E00E945605F801EE0FFF1F41E029
S113080050E04C0F5D1FE40FF51F91838083862F0A
S1130810972F009749F78FE19EE40197F1F700C005
S1130820000015C0F801EE0FFF1F41E050E04C0F2F
S11308305D1FE40FF51F8081805D0E94FA028FE93D
S11308409FE00197F1F700C0000001501109112346
S11308504CF764960FB6F894DEBF0FBECDBFDF91A0
S1130860CF911F910F91FF90EF90089581E00E9426
S113087030030895CF93DF9300D0CDB7DEB790E86F
S1130880998390EC9A83E1E0F0E0EC0FFD1FE80F10
S1130890F11D8081860F0E9430030F900F90DF912D
S11308A0CF91089581B3806281BB8EB580618EBD86
S11308B08EB588608EBD8FB582608FBD8FB58E7FFB
S11308C08FBD8FB580688FBD8FB58F7B8FBD8EB583
S11308D084608EBD8EB58D7F8EBD8EB58E7F8EBDB0
S11308E082EE94E097BD86BD089546B557B5282F8E
S11308F0249FC001259F900D11249C0136952795B6
S113090036952795ABE7B4E10E948C0596958795BB
S113091001979BBD8ABD08958AE00E9475042FEF5C
S113092084E39CE0215080409040E1F700C0000047
S113093085E00E9475042FEF85EE9AEA21508040ED
S11309409040E1F700C000008AE00E9475042FEF98
S113095084E39CE0215080409040E1F700C0000017
S113096008950E94D7040895CF92DF92EF92FF92E8
S11309700E94F9049C01A4EFB1E00E948C052FEFC2
S113098033E040E050E00E946A0569017A012432B4
S1130990310528F00E94B8020E942C0202C00E9475
S11309A0BC02C601FF90EF90DF90CF90089587B10D
S11309B08F7D87B987B18F7E87B987B1877F87B9E4
S11309C087B18B7F87B987B18D7F87B987B1816004
S11309D087B986B1816086B986B1826086B986B1ED
S11309E0846086B986B1806286B986B1806886B92A
S11309F0089586B1806486B9349BFECF84B195B1E5
S1130A0008951F920F920FB60F9211248F939F9304
S1130A1084B195B19093FF008093FE009F918F91D4
S1130A200F900FBE0F901F9018958CE080B9089519
S1130A3084E986BF089581B1887F089584EA86BFDA
S1130A4006B607FEFDCF0E941B05089583B984E80E
S1130A5086BF06B607FEFDCF0E941B05089524E855
S1130A6026BF06B607FEFDCF23B1FC0120830E94FA
S1130A701B05089582E080BD85EC89B98AB1806840
S1130A808AB98AB180618AB98AB188608AB980B525
S1130A90806880BD80B5846080BD80B5826080BD83
S1130AA0789408955D9BFECF8CB9089597FB072E2B
S1130AB016F4009407D077FD09D00E949B0507FC2B
S1130AC005D03EF4909581959F4F0895709561955A
S1130AD07F4F0895A1E21A2EAA1BBB1BFD010DC076
S1130AE0AA1FBB1FEE1FFF1FA217B307E407F507DA
S1130AF020F0A21BB30BE40BF50B661F771F881FB6
S1130B00991F1A9469F760957095809590959B014B
S1130B10AC01BD01CF010895A29FB001B39FC001F4
S1130B20A39F700D811D1124911DB29F700D811D15
S1130B301124911D0895AA1BBB1B51E107C0AA1FD4
S1130B40BB1FA617B70710F0A61BB70B881F991F6A
S1130B505A95A9F780959095BC01CD0108950F93FE
S1130B601F93CF93DF938230910510F482E090E0DD
S1130B70E0910401F091050120E030E0A0E0B0E054
S1130B80309719F140815181028113814817590727
S1130B90C8F08417950769F4109731F012960C93F6
S1130BA0129713961C9327C0009304011093050118
S1130BB022C02115310519F04217530718F49A0180
S1130BC0BD01EF01DF01F801DBCF21153105F9F09B
S1130BD0281B390B2430310580F48A819B816115EF
S1130BE0710521F0FB019383828304C09093050176
S1130BF080930401FE01329644C0FE01E20FF31F0C
S1130C008193919322503109398328833AC02091EA
S1130C10020130910301232B41F4209162003091B1
S1130C20630030930301209302012091600030910E
S1130C3061002115310541F42DB73EB740916400A0
S1130C4050916500241B350BE0910201F0910301E2
S1130C50E217F307A0F42E1B3F0B2817390778F08F
S1130C60AC014E5F5F4F2417350748F04E0F5F1FEE
S1130C7050930301409302018193919302C0E0E0F9
S1130C80F0E0CF01DF91CF911F910F910895CF93A1
S1130C90DF93009709F481C0FC013297138212821A
S1130CA0A0910401B0910501109781F42081318154
S1130CB0820F931F209102013091030128173907F5
S1130CC051F5F0930301E093020167C0ED0120E0C8
S1130CD030E0CE17DF0740F44A815B819E01411565
S1130CE05105F1F0EA01F5CFD383C28340815181EC
S1130CF0840F951FC817D90759F488819981840FE7
S1130D00951F0296918380838A819B81938382833A
S1130D102115310529F4F0930501E09304013DC048
S1130D20E901FB83EA8349915991C40FD51FEC175C
S1130D30FD0761F480819181840F951F0296E9017A
S1130D4099838883828193819B838A83E0E0F0E0A6
S1130D5012968D919C911397009719F0FD01DC0177
S1130D60F7CF8D919C9111979D012E5F3F4F820F7C
S1130D70931F20910201309103012817390769F468
S1130D80309729F4109205011092040102C01382D5
S1130D901282B0930301A0930201DF91CF910895D1
S1130DA0FB01DC018D91019080190110D9F3990B9D
S1090DB00895F894FFCF42
S1130DB600000601200023272C00081032303232AE
S1130DC62F30382F31380054656D70657261747533
S1130DD672652000456E7465722070617373776F57
S1130DE672643A0057656C636F6D65200057726FC5
S1130DF66E672050617373776F7264005472792042
S1130E06616761696E210057656C636F6D65206863
S1130E166F6D65210057656C636F6D6521005468BD
S1130E266520646F6F72206973206F70656E004C65
S1130E366F67696E204661696C75726500537973D4
S1110E4674656D20416C61726D204F4E210069
S9030000FC
