:100000000C942A000C9447000C9447000C94470071
:100010000C9447000C9447000C9447000C94470044
:100020000C9447000C9447000C9447000C94470034
:100030000C9447000C9447000C9447000C94470024
:100040000C9447000C9447000C9447000C94470014
:100050000C94470011241FBECFE5D8E0DEBFCDBF12
:1000600010E0A0E6B0E0EEE1F7E002C005900D92EE
:10007000AA38B107D9F720E0AAE8B0E001C01D9284
:10008000AE38B207E1F70E9449000C948D030C943E
:1000900000000E94F6010E94470287B38E7F87BB53
:1000A00084B3846084BBB09B28C08EE690E00E943D
:1000B0001E0281E00E94D1000E941E0260E081E0E9
:1000C0000E942F0287E790E00E941E0281E00E94BA
:1000D00010010E941E0285B3846085BB2FEF81E171
:1000E0009AE7215080409040E1F700C000000E9454
:1000F0002B0285B38B7F85BBD6CF869B28C08EE62F
:1001000090E00E941E0282E00E94D1000E941E0226
:1001100060E081E00E942F0287E790E00E941E02CB
:1001200082E00E9410010E941E0285B3846085BB9C
:100130002FEF81E19AE7215080409040E1F700C025
:1001400000000E942B0285B38B7F85BBACCF829BC6
:10015000AACF8EE690E00E941E0283E00E94D100AA
:100160000E941E0260E081E00E942F0287E790E07B
:100170000E941E0283E00E9410010E941E0285B3AD
:10018000846085BB2FEF81E19AE721508040904049
:10019000E1F700C000000E942B0285B38B7F85BB76
:1001A00082CFCF92DF92EF92FF920F931F93CF9364
:1001B000E82FF0E0E759FF4FC08188E090E00E940F
:1001C0006C026C0100E010E018C07601E00EF11E38
:1001D0006C2F80EA0E945001F701808383ED90E349
:1001E0000197F1F700C00000CF5F0F5F1F4FE3EDF5
:1001F000F0E33197F1F700C000006C2F80EA0E9415
:1002000050018111E2CFF601E00FF11F1082C6010B
:10021000CF911F910F91FF90EF90DF90CF900895B5
:10022000CF92DF92EF92FF921F93CF93DF93E82F4D
:10023000F0E0EB59FF4F108188E090E00E946C02E3
:100240006C01C0E0D0E01AC07601EC0EFD1E612FFB
:1002500080EA0E945001F701808383ED90E30197CB
:10026000F1F700C000001F5F2196E3EDF0E3319746
:10027000F1F700C00000C430D10531F0612F80EAF1
:100280000E9450018111E0CFCC0DDD1D1882C60106
:10029000DF91CF911F91FF90EF90DF90CF90089565
:1002A000FF920F931F93CF93DF931F92CDB7DEB7CB
:1002B000F62E082F0E7F182F116019820E9450020F
:1002C000089701F5802F90E00E9458024897D1F4DA
:1002D0008F2D90E00E9458028897A1F40E9450024E
:1002E000409781F4812F90E00E945802803491055C
:1002F00049F4CE0101960E9461028835910511F4FE
:100300000E944A0289810F90DF91CF911F910F9136
:10031000FF90089598B3926098BB9BB3282F207FDD
:100320009F70922B9BBB98B3986098BBEFE3FFE163
:100330003197F1F700C0000098B3977F98BBEFE1C9
:10034000FEE43197F1F700C00000F0E18F9FC0019B
:1003500011249BB39F70892B8BBB88B3886088BBAB
:100360008FE39FE10197F1F700C0000088B3877F1A
:1003700088BBEFE1FEE43197F1F700C0000008957B
:1003800098B39D7F98BB9BB3282F207F9F70922BA3
:100390009BBB98B3986098BBEFE3FFE13197F1F70F
:1003A00000C0000098B3977F98BBEFE1FEE431975F
:1003B000F1F700C00000F0E18F9FC00111249BB352
:1003C0009F70892B8BBB88B3886088BB8FE39FE1CC
:1003D0000197F1F700C0000088B3877F88BBEFE189
:1003E000FEE43197F1F700C0000008958AB3806FF2
:1003F0008ABB87B38E6087BB88B38B7F88BB2FEFA8
:1004000084E39CE0215080409040E1F700C0000070
:1004100083E30E94C00182E30E94C00188E20E943F
:10042000C00188E20E94C0018CE00E94C00181E00E
:100430000E94C00182E00E94C0010895CF93DF9323
:10044000EC0103C00E948A01219688818111FACFB4
:10045000DF91CF91089581E00E94C0010895CF936C
:10046000DF9300D0CDB7DEB790E8998390EC9A8304
:10047000E1E0F0E0EC0FFD1FE80FF11D8081860F39
:100480000E94C0010F900F90DF91CF9108958CE0F2
:1004900080B9089584E986BF089581B1887F089561
:1004A00084EA86BF06B607FEFDCF0E944D0208957E
:1004B00083B984E886BF06B607FEFDCF0E944D02D1
:1004C000089524E826BF06B607FEFDCF23B1FC0140
:1004D00020830E944D0208950F931F93CF93DF93C3
:1004E0008230910510F482E090E0E0918C00F09170
:1004F0008D0020E030E0A0E0B0E0309719F14081BD
:1005000051810281138148175907C8F08417950754
:1005100069F4109731F012960C93129713961C936E
:1005200027C000938C0010938D0022C02115310547
:1005300019F04217530718F49A01BD01EF01DF01CA
:10054000F801DBCF21153105F9F0281B390B2430D8
:10055000310580F48A819B816115710521F0FB01D1
:100560009383828304C090938D0080938C00FE015E
:10057000329644C0FE01E20FF31F81939193225003
:100580003109398328833AC020918A0030918B0049
:10059000232B41F4209162003091630030938B0053
:1005A00020938A002091600030916100211531056F
:1005B00041F42DB73EB74091640050916500241B73
:1005C000350BE0918A00F0918B00E217F307A0F45D
:1005D0002E1B3F0B2817390778F0AC014E5F5F4F99
:1005E0002417350748F04E0F5F1F50938B00409340
:1005F0008A008193919302C0E0E0F0E0CF01DF91A7
:10060000CF911F910F910895CF93DF93009709F435
:1006100081C0FC01329713821282A0918C00B091AC
:100620008D00109781F420813181820F931F2091DA
:100630008A0030918B002817390751F5F0938B0011
:10064000E0938A0067C0ED0120E030E0CE17DF07BD
:1006500040F44A815B819E0141155105F1F0EA01A8
:10066000F5CFD383C28340815181840F951FC81772
:10067000D90759F488819981840F951F0296918337
:1006800080838A819B81938382832115310529F49C
:10069000F0938D00E0938C003DC0E901FB83EA8379
:1006A00049915991C40FD51FEC17FD0761F4808162
:1006B0009181840F951F0296E90199838883828135
:1006C00093819B838A83E0E0F0E012968D919C9168
:1006D0001397009719F0FD01DC01F7CF8D919C91E4
:1006E00011979D012E5F3F4F820F931F20918A002B
:1006F00030918B002817390769F4309729F410924C
:100700008D0010928C0002C013821282B0938B0075
:0E071000A0938A00DF91CF910895F894FFCF57
:10071E0000008E00200023272C00000810005765D3
:10072E006C636F6D65200050617373776F72643AFE
:0A073E00200048454C4C4F210000FC
:00000001FF
